{
  "address": "0xe7f1725E7734CE288F8367e1Bb143E90bb3F0512",
  "abi": [
    {
      "inputs": [
        {
          "internalType": "address",
          "name": "priceFeedAddress",
          "type": "address"
        }
      ],
      "stateMutability": "nonpayable",
      "type": "constructor"
    },
    {
      "inputs": [],
      "name": "FundMe__NotOwner",
      "type": "error"
    },
    {
      "stateMutability": "payable",
      "type": "fallback"
    },
    {
      "inputs": [
        {
          "internalType": "address",
          "name": "",
          "type": "address"
        }
      ],
      "name": "addressToAmountFunded",
      "outputs": [
        {
          "internalType": "uint256",
          "name": "",
          "type": "uint256"
        }
      ],
      "stateMutability": "view",
      "type": "function"
    },
    {
      "inputs": [],
      "name": "fund",
      "outputs": [],
      "stateMutability": "payable",
      "type": "function"
    },
    {
      "inputs": [
        {
          "internalType": "uint256",
          "name": "",
          "type": "uint256"
        }
      ],
      "name": "funders",
      "outputs": [
        {
          "internalType": "address",
          "name": "",
          "type": "address"
        }
      ],
      "stateMutability": "view",
      "type": "function"
    },
    {
      "inputs": [],
      "name": "minUsd",
      "outputs": [
        {
          "internalType": "uint256",
          "name": "",
          "type": "uint256"
        }
      ],
      "stateMutability": "view",
      "type": "function"
    },
    {
      "inputs": [],
      "name": "owner",
      "outputs": [
        {
          "internalType": "address",
          "name": "",
          "type": "address"
        }
      ],
      "stateMutability": "view",
      "type": "function"
    },
    {
      "inputs": [],
      "name": "priceFeed",
      "outputs": [
        {
          "internalType": "contract AggregatorV3Interface",
          "name": "",
          "type": "address"
        }
      ],
      "stateMutability": "view",
      "type": "function"
    },
    {
      "inputs": [],
      "name": "withdraw",
      "outputs": [],
      "stateMutability": "nonpayable",
      "type": "function"
    },
    {
      "stateMutability": "payable",
      "type": "receive"
    }
  ],
  "transactionHash": "0x689fb7819aedead19b95b499fdcb1fb1ed55f8e785049fb5ff3286bff7a21382",
  "args": [
    "0x5FbDB2315678afecb367f032d93F642f64180aa3"
  ],
  "numDeployments": 1,
  "solcInputHash": "915dada6bc359b63dfed9a008120fa68",
  "bytecode": "0x60a060405234801561001057600080fd5b50604051620010733803806200107383398181016040528101906100349190610115565b3373ffffffffffffffffffffffffffffffffffffffff1660808173ffffffffffffffffffffffffffffffffffffffff1660601b8152505080600260006101000a81548173ffffffffffffffffffffffffffffffffffffffff021916908373ffffffffffffffffffffffffffffffffffffffff16021790555050610142565b600080fd5b600073ffffffffffffffffffffffffffffffffffffffff82169050919050565b60006100e2826100b7565b9050919050565b6100f2816100d7565b81146100fd57600080fd5b50565b60008151905061010f816100e9565b92915050565b60006020828403121561012b5761012a6100b2565b5b600061013984828501610100565b91505092915050565b60805160601c610f046200016f600039600081816102e6015281816104dc01526105f50152610f046000f3fe6080604052600436106100745760003560e01c8063741bef1a1161004e578063741bef1a1461010c5780638da5cb5b14610137578063b60d428814610162578063dc0d3dff1461016c57610083565b80633ccfd60b1461008d5780633e47d6f3146100a457806351b80e41146100e157610083565b36610083576100816101a9565b005b61008b6101a9565b005b34801561009957600080fd5b506100a26102e4565b005b3480156100b057600080fd5b506100cb60048036038101906100c6919061083c565b6105a8565b6040516100d89190610882565b60405180910390f35b3480156100ed57600080fd5b506100f66105c0565b6040516101039190610882565b60405180910390f35b34801561011857600080fd5b506101216105cd565b60405161012e91906108fc565b60405180910390f35b34801561014357600080fd5b5061014c6105f3565b6040516101599190610926565b60405180910390f35b61016a6101a9565b005b34801561017857600080fd5b50610193600480360381019061018e919061096d565b610617565b6040516101a09190610926565b60405180910390f35b6802b5e3af16b18800006101e8600260009054906101000a900473ffffffffffffffffffffffffffffffffffffffff163461065690919063ffffffff16565b1015610229576040517f08c379a0000000000000000000000000000000000000000000000000000000008152600401610220906109f7565b60405180910390fd5b6000339080600181540180825580915050600190039060005260206000200160009091909190916101000a81548173ffffffffffffffffffffffffffffffffffffffff021916908373ffffffffffffffffffffffffffffffffffffffff16021790555034600160003373ffffffffffffffffffffffffffffffffffffffff1673ffffffffffffffffffffffffffffffffffffffff16815260200190815260200160002060008282546102db9190610a46565b92505081905550565b7f000000000000000000000000000000000000000000000000000000000000000073ffffffffffffffffffffffffffffffffffffffff163373ffffffffffffffffffffffffffffffffffffffff1614610369576040517f579610db00000000000000000000000000000000000000000000000000000000815260040160405180910390fd5b6000808054806020026020016040519081016040528092919081815260200182805480156103ec57602002820191906000526020600020905b8160009054906101000a900473ffffffffffffffffffffffffffffffffffffffff1673ffffffffffffffffffffffffffffffffffffffff16815260200190600101908083116103a2575b5050505050905060005b815181101561047757600082828151811061041457610413610a9c565b5b602002602001015190506000600160008373ffffffffffffffffffffffffffffffffffffffff1673ffffffffffffffffffffffffffffffffffffffff1681526020019081526020016000208190555050808061046f90610acb565b9150506103f6565b50600067ffffffffffffffff81111561049357610492610b14565b5b6040519080825280602002602001820160405280156104c15781602001602082028036833780820191505090505b50600090805190602001906104d7929190610732565b5060007f000000000000000000000000000000000000000000000000000000000000000073ffffffffffffffffffffffffffffffffffffffff164760405161051e90610b74565b60006040518083038185875af1925050503d806000811461055b576040519150601f19603f3d011682016040523d82523d6000602084013e610560565b606091505b50509050806105a4576040517f08c379a000000000000000000000000000000000000000000000000000000000815260040161059b90610bd5565b60405180910390fd5b5050565b60016020528060005260406000206000915090505481565b6802b5e3af16b188000081565b600260009054906101000a900473ffffffffffffffffffffffffffffffffffffffff1681565b7f000000000000000000000000000000000000000000000000000000000000000081565b6000818154811061062757600080fd5b906000526020600020016000915054906101000a900473ffffffffffffffffffffffffffffffffffffffff1681565b60008061066283610692565b90506000670de0b6b3a7640000858361067b9190610bf5565b6106859190610c7e565b9050809250505092915050565b6000808273ffffffffffffffffffffffffffffffffffffffff1663feaf968c6040518163ffffffff1660e01b815260040160a06040518083038186803b1580156106db57600080fd5b505afa1580156106ef573d6000803e3d6000fd5b505050506040513d601f19601f820116820180604052508101906107139190610d3c565b5050509150506402540be4008161072a9190610db7565b915050919050565b8280548282559060005260206000209081019282156107ab579160200282015b828111156107aa5782518260006101000a81548173ffffffffffffffffffffffffffffffffffffffff021916908373ffffffffffffffffffffffffffffffffffffffff16021790555091602001919060010190610752565b5b5090506107b891906107bc565b5090565b5b808211156107d55760008160009055506001016107bd565b5090565b600080fd5b600073ffffffffffffffffffffffffffffffffffffffff82169050919050565b6000610809826107de565b9050919050565b610819816107fe565b811461082457600080fd5b50565b60008135905061083681610810565b92915050565b600060208284031215610852576108516107d9565b5b600061086084828501610827565b91505092915050565b6000819050919050565b61087c81610869565b82525050565b60006020820190506108976000830184610873565b92915050565b6000819050919050565b60006108c26108bd6108b8846107de565b61089d565b6107de565b9050919050565b60006108d4826108a7565b9050919050565b60006108e6826108c9565b9050919050565b6108f6816108db565b82525050565b600060208201905061091160008301846108ed565b92915050565b610920816107fe565b82525050565b600060208201905061093b6000830184610917565b92915050565b61094a81610869565b811461095557600080fd5b50565b60008135905061096781610941565b92915050565b600060208284031215610983576109826107d9565b5b600061099184828501610958565b91505092915050565b600082825260208201905092915050565b7f44696427742073656e6420656e6f756768000000000000000000000000000000600082015250565b60006109e160118361099a565b91506109ec826109ab565b602082019050919050565b60006020820190508181036000830152610a10816109d4565b9050919050565b7f4e487b7100000000000000000000000000000000000000000000000000000000600052601160045260246000fd5b6000610a5182610869565b9150610a5c83610869565b9250827fffffffffffffffffffffffffffffffffffffffffffffffffffffffffffffffff03821115610a9157610a90610a17565b5b828201905092915050565b7f4e487b7100000000000000000000000000000000000000000000000000000000600052603260045260246000fd5b6000610ad682610869565b91507fffffffffffffffffffffffffffffffffffffffffffffffffffffffffffffffff821415610b0957610b08610a17565b5b600182019050919050565b7f4e487b7100000000000000000000000000000000000000000000000000000000600052604160045260246000fd5b600081905092915050565b50565b6000610b5e600083610b43565b9150610b6982610b4e565b600082019050919050565b6000610b7f82610b51565b9150819050919050565b7f63616c6c206661696c6564000000000000000000000000000000000000000000600082015250565b6000610bbf600b8361099a565b9150610bca82610b89565b602082019050919050565b60006020820190508181036000830152610bee81610bb2565b9050919050565b6000610c0082610869565b9150610c0b83610869565b9250817fffffffffffffffffffffffffffffffffffffffffffffffffffffffffffffffff0483118215151615610c4457610c43610a17565b5b828202905092915050565b7f4e487b7100000000000000000000000000000000000000000000000000000000600052601260045260246000fd5b6000610c8982610869565b9150610c9483610869565b925082610ca457610ca3610c4f565b5b828204905092915050565b600069ffffffffffffffffffff82169050919050565b610cce81610caf565b8114610cd957600080fd5b50565b600081519050610ceb81610cc5565b92915050565b6000819050919050565b610d0481610cf1565b8114610d0f57600080fd5b50565b600081519050610d2181610cfb565b92915050565b600081519050610d3681610941565b92915050565b600080600080600060a08688031215610d5857610d576107d9565b5b6000610d6688828901610cdc565b9550506020610d7788828901610d12565b9450506040610d8888828901610d27565b9350506060610d9988828901610d27565b9250506080610daa88828901610cdc565b9150509295509295909350565b6000610dc282610cf1565b9150610dcd83610cf1565b9250827f7fffffffffffffffffffffffffffffffffffffffffffffffffffffffffffffff0482116000841360008413161615610e0c57610e0b610a17565b5b817f80000000000000000000000000000000000000000000000000000000000000000583126000841260008413161615610e4957610e48610a17565b5b827f80000000000000000000000000000000000000000000000000000000000000000582126000841360008412161615610e8657610e85610a17565b5b827f7fffffffffffffffffffffffffffffffffffffffffffffffffffffffffffffff0582126000841260008412161615610ec357610ec2610a17565b5b82820290509291505056fea26469706673582212203350d81d81123bcfa6b1981c2b4b39c62ccfafbf90ce87940ca6d44a1b18093464736f6c63430008080033",
  "devdoc": {
    "kind": "dev",
    "methods": {},
    "version": 1
  },
  "userdoc": {
    "kind": "user",
    "methods": {},
    "version": 1
  },
  "storageLayout": {
    "storage": [
      {
        "astId": 62,
        "contract": "contracts/FundMe.sol:FundMe",
        "label": "funders",
        "offset": 0,
        "slot": "0",
        "type": "t_array(t_address)dyn_storage"
      },
      {
        "astId": 68,
        "contract": "contracts/FundMe.sol:FundMe",
        "label": "addressToAmountFunded",
        "offset": 0,
        "slot": "1",
        "type": "t_mapping(t_address,t_uint256)"
      },
      {
        "astId": 71,
        "contract": "contracts/FundMe.sol:FundMe",
        "label": "priceFeed",
        "offset": 0,
        "slot": "2",
        "type": "t_contract(AggregatorV3Interface)45"
      }
    ],
    "types": {
      "t_address": {
        "encoding": "inplace",
        "label": "address",
        "numberOfBytes": "20"
      },
      "t_array(t_address)dyn_storage": {
        "base": "t_address",
        "encoding": "dynamic_array",
        "label": "address[]",
        "numberOfBytes": "32"
      },
      "t_contract(AggregatorV3Interface)45": {
        "encoding": "inplace",
        "label": "contract AggregatorV3Interface",
        "numberOfBytes": "20"
      },
      "t_mapping(t_address,t_uint256)": {
        "encoding": "mapping",
        "key": "t_address",
        "label": "mapping(address => uint256)",
        "numberOfBytes": "32",
        "value": "t_uint256"
      },
      "t_uint256": {
        "encoding": "inplace",
        "label": "uint256",
        "numberOfBytes": "32"
      }
    }
  }
}